:100000000AC008C007C006C005C004C003C002C0C3
:1000100001C000C0189511247894B898B998BB9A7B
:10002000BC9ABD9AC398C498C59A26B336B331FB1F
:10003000882780F990E020FF06C0892B99F7C39AA2
:10004000C498C598F2CF892B69F3C398C49AC59810
:1000500025E630E006C0EFEAF4E03197F1F700C0A2
:10006000000021503109B9F7C59A25E630E006C0F5
:10007000EFEAF4E03197F1F700C0000021503109B8
:04008000B9F7D3CF2A
:00000001FF
